{
  "contractName": "Kryptobird",
  "abi": [
    {
      "inputs": [],
      "stateMutability": "nonpayable",
      "type": "constructor"
    },
    {
      "anonymous": false,
      "inputs": [
        {
          "indexed": true,
          "internalType": "address",
          "name": "_owner",
          "type": "address"
        },
        {
          "indexed": true,
          "internalType": "address",
          "name": "_approved",
          "type": "address"
        },
        {
          "indexed": true,
          "internalType": "uint256",
          "name": "_tokenId",
          "type": "uint256"
        }
      ],
      "name": "Approval",
      "type": "event"
    },
    {
      "anonymous": false,
      "inputs": [
        {
          "indexed": true,
          "internalType": "address",
          "name": "_from",
          "type": "address"
        },
        {
          "indexed": true,
          "internalType": "address",
          "name": "_to",
          "type": "address"
        },
        {
          "indexed": true,
          "internalType": "uint256",
          "name": "_tokenId",
          "type": "uint256"
        }
      ],
      "name": "Transfer",
      "type": "event"
    },
    {
      "inputs": [
        {
          "internalType": "uint256",
          "name": "",
          "type": "uint256"
        }
      ],
      "name": "Kryptobirdz",
      "outputs": [
        {
          "internalType": "string",
          "name": "",
          "type": "string"
        }
      ],
      "stateMutability": "view",
      "type": "function"
    },
    {
      "inputs": [
        {
          "internalType": "address",
          "name": "_to",
          "type": "address"
        },
        {
          "internalType": "uint256",
          "name": "_tokenId",
          "type": "uint256"
        }
      ],
      "name": "approve",
      "outputs": [],
      "stateMutability": "nonpayable",
      "type": "function"
    },
    {
      "inputs": [
        {
          "internalType": "address",
          "name": "_owner",
          "type": "address"
        }
      ],
      "name": "balanceOf",
      "outputs": [
        {
          "internalType": "uint256",
          "name": "",
          "type": "uint256"
        }
      ],
      "stateMutability": "view",
      "type": "function"
    },
    {
      "inputs": [
        {
          "internalType": "address",
          "name": "spender",
          "type": "address"
        },
        {
          "internalType": "uint256",
          "name": "tokenId",
          "type": "uint256"
        }
      ],
      "name": "isApproved",
      "outputs": [
        {
          "internalType": "bool",
          "name": "",
          "type": "bool"
        }
      ],
      "stateMutability": "view",
      "type": "function"
    },
    {
      "inputs": [],
      "name": "name",
      "outputs": [
        {
          "internalType": "string",
          "name": "",
          "type": "string"
        }
      ],
      "stateMutability": "view",
      "type": "function"
    },
    {
      "inputs": [
        {
          "internalType": "uint256",
          "name": "_tokenId",
          "type": "uint256"
        }
      ],
      "name": "ownerOf",
      "outputs": [
        {
          "internalType": "address",
          "name": "",
          "type": "address"
        }
      ],
      "stateMutability": "view",
      "type": "function"
    },
    {
      "inputs": [
        {
          "internalType": "address",
          "name": "owner",
          "type": "address"
        },
        {
          "internalType": "uint256",
          "name": "index",
          "type": "uint256"
        }
      ],
      "name": "ownerTokenByIndex",
      "outputs": [
        {
          "internalType": "uint256",
          "name": "",
          "type": "uint256"
        }
      ],
      "stateMutability": "view",
      "type": "function"
    },
    {
      "inputs": [
        {
          "internalType": "bytes4",
          "name": "interfaceID",
          "type": "bytes4"
        }
      ],
      "name": "supportsInterface",
      "outputs": [
        {
          "internalType": "bool",
          "name": "",
          "type": "bool"
        }
      ],
      "stateMutability": "view",
      "type": "function"
    },
    {
      "inputs": [],
      "name": "symbol",
      "outputs": [
        {
          "internalType": "string",
          "name": "",
          "type": "string"
        }
      ],
      "stateMutability": "view",
      "type": "function"
    },
    {
      "inputs": [
        {
          "internalType": "uint256",
          "name": "index",
          "type": "uint256"
        }
      ],
      "name": "tokenByIndex",
      "outputs": [
        {
          "internalType": "uint256",
          "name": "",
          "type": "uint256"
        }
      ],
      "stateMutability": "view",
      "type": "function"
    },
    {
      "inputs": [],
      "name": "totalSupply",
      "outputs": [
        {
          "internalType": "uint256",
          "name": "",
          "type": "uint256"
        }
      ],
      "stateMutability": "view",
      "type": "function"
    },
    {
      "inputs": [
        {
          "internalType": "address",
          "name": "_from",
          "type": "address"
        },
        {
          "internalType": "address",
          "name": "_to",
          "type": "address"
        },
        {
          "internalType": "uint256",
          "name": "_tokenId",
          "type": "uint256"
        }
      ],
      "name": "transferFrom",
      "outputs": [],
      "stateMutability": "nonpayable",
      "type": "function"
    },
    {
      "inputs": [
        {
          "internalType": "string",
          "name": "_kryptoBird",
          "type": "string"
        }
      ],
      "name": "mint",
      "outputs": [],
      "stateMutability": "nonpayable",
      "type": "function"
    }
  ],
  "bytecode": "0x60806040523480156200001157600080fd5b506040518060400160405280600b81526020017f4b727970746f62697264790000000000000000000000000000000000000000008152506040518060400160405280600481526020017f4b524244000000000000000000000000000000000000000000000000000000008152508181620000b17f01ffc9a7a5cef8baa21ed3c5c0d7e23accb804b619e9333b597f47a0d84076e26200022a60201b60201c565b620001047f13b182f4c0e5b2efbac0efe6cf6d756c8b89f4b79c5707a043ed9ea740574ee97f7feaf19471f34a12a7eaf32d5f3090aa2260ea8624dc8a138e74e0bf0f623076186200022a60201b60201c565b81600190805190602001906200011c92919062000302565b5080600290805190602001906200013592919062000302565b505050620001ad7f22c82707ba960a14c7592ffb6b8cfaa073fed0048a84cc7fa41f6b5bd8e7f2e47f3a6eb71757dfc6e784c1459d26270140c2c147d95ca985c80026fc5301c3eca17f8a7e378434598edc36d108689a030cbc9d7d465de4f74c71bae1028eed6a881b18186200022a60201b60201c565b620002227f30e35f83661cf8f334d0d6561d2df3f09a53c215220577d7ff751422e5f88c927f6da5e1284143cdd2d15038a59bde3be031250f00291d64494c12d967b3a4e0c37fc53637662700e6c65104059db8bba34439e0c32483ab7c34e3ccae52c739549518186200022a60201b60201c565b50506200049a565b63ffffffff60e01b817bffffffffffffffffffffffffffffffffffffffffffffffffffffffff1916141562000296576040517f08c379a00000000000000000000000000000000000000000000000000000000081526004016200028d9062000413565b60405180910390fd5b6001600080837bffffffffffffffffffffffffffffffffffffffffffffffffffffffff19167bffffffffffffffffffffffffffffffffffffffffffffffffffffffff1916815260200190815260200160002060006101000a81548160ff02191690831515021790555050565b828054620003109062000464565b90600052602060002090601f01602090048101928262000334576000855562000380565b82601f106200034f57805160ff191683800117855562000380565b8280016001018555821562000380579182015b828111156200037f57825182559160200191906001019062000362565b5b5090506200038f919062000393565b5090565b5b80821115620003ae57600081600090555060010162000394565b5090565b600082825260208201905092915050565b7f496e76616c696420496e74657266616365207265717565737400000000000000600082015250565b6000620003fb601983620003b2565b91506200040882620003c3565b602082019050919050565b600060208201905081810360008301526200042e81620003ec565b9050919050565b7f4e487b7100000000000000000000000000000000000000000000000000000000600052602260045260246000fd5b600060028204905060018216806200047d57607f821691505b6020821081141562000494576200049362000435565b5b50919050565b611d2380620004aa6000396000f3fe608060405234801561001057600080fd5b50600436106100cf5760003560e01c80634f6ccce71161008c57806395d89b411161006657806395d89b4114610238578063cd78c6de14610256578063d85d3d2714610286578063f5dcf3da146102a2576100cf565b80634f6ccce7146101a85780636352211e146101d857806370a0823114610208576100cf565b806301ffc9a7146100d457806306fdde0314610104578063095ea7b31461012257806318160ddd1461013e57806323b872dd1461015c5780632a16cca414610178575b600080fd5b6100ee60048036038101906100e991906111aa565b6102d2565b6040516100fb91906111f2565b60405180910390f35b61010c610339565b60405161011991906112a6565b60405180910390f35b61013c6004803603810190610137919061135c565b6103cb565b005b610146610567565b60405161015391906113ab565b60405180910390f35b610176600480360381019061017191906113c6565b610574565b005b610192600480360381019061018d919061135c565b610597565b60405161019f91906111f2565b60405180910390f35b6101c260048036038101906101bd9190611419565b610626565b6040516101cf91906113ab565b60405180910390f35b6101f260048036038101906101ed9190611419565b610697565b6040516101ff9190611455565b60405180910390f35b610222600480360381019061021d9190611470565b610749565b60405161022f91906113ab565b60405180910390f35b610240610801565b60405161024d91906112a6565b60405180910390f35b610270600480360381019061026b919061135c565b610893565b60405161027d91906113ab565b60405180910390f35b6102a0600480360381019061029b91906115d2565b610944565b005b6102bc60048036038101906102b79190611419565b610a47565b6040516102c991906112a6565b60405180910390f35b6000806000837bffffffffffffffffffffffffffffffffffffffffffffffffffffffff19167bffffffffffffffffffffffffffffffffffffffffffffffffffffffff1916815260200190815260200160002060009054906101000a900460ff169050919050565b6060600180546103489061164a565b80601f01602080910402602001604051908101604052809291908181526020018280546103749061164a565b80156103c15780601f10610396576101008083540402835291602001916103c1565b820191906000526020600020905b8154815290600101906020018083116103a457829003601f168201915b5050505050905090565b60006103d682610697565b90508073ffffffffffffffffffffffffffffffffffffffff163373ffffffffffffffffffffffffffffffffffffffff1614610446576040517f08c379a000000000000000000000000000000000000000000000000000000000815260040161043d906116c8565b60405180910390fd5b8073ffffffffffffffffffffffffffffffffffffffff168373ffffffffffffffffffffffffffffffffffffffff1614156104b5576040517f08c379a00000000000000000000000000000000000000000000000000000000081526004016104ac90611734565b60405180910390fd5b826005600084815260200190815260200160002060006101000a81548173ffffffffffffffffffffffffffffffffffffffff021916908373ffffffffffffffffffffffffffffffffffffffff160217905550818373ffffffffffffffffffffffffffffffffffffffff168273ffffffffffffffffffffffffffffffffffffffff167f8c5be1e5ebec7d5bd14f71427d1e84f3dd0314c0f7b2291e5b200ac8c7c3b92560405160405180910390a4505050565b6000600680549050905090565b61057e3382610597565b61058757600080fd5b610592838383610af3565b505050565b60006105a282610d39565b6105e1576040517f08c379a00000000000000000000000000000000000000000000000000000000081526004016105d8906117a0565b60405180910390fd5b60006105ec83610697565b90508073ffffffffffffffffffffffffffffffffffffffff168473ffffffffffffffffffffffffffffffffffffffff161491505092915050565b6000610630610567565b8210610671576040517f08c379a00000000000000000000000000000000000000000000000000000000081526004016106689061180c565b60405180910390fd5b600682815481106106855761068461182c565b5b90600052602060002001549050919050565b6000806003600084815260200190815260200160002060009054906101000a900473ffffffffffffffffffffffffffffffffffffffff169050600073ffffffffffffffffffffffffffffffffffffffff168173ffffffffffffffffffffffffffffffffffffffff161415610740576040517f08c379a0000000000000000000000000000000000000000000000000000000008152600401610737906118a7565b60405180910390fd5b80915050919050565b60008073ffffffffffffffffffffffffffffffffffffffff168273ffffffffffffffffffffffffffffffffffffffff1614156107ba576040517f08c379a00000000000000000000000000000000000000000000000000000000081526004016107b190611913565b60405180910390fd5b600460008373ffffffffffffffffffffffffffffffffffffffff1673ffffffffffffffffffffffffffffffffffffffff168152602001908152602001600020549050919050565b6060600280546108109061164a565b80601f016020809104026020016040519081016040528092919081815260200182805461083c9061164a565b80156108895780601f1061085e57610100808354040283529160200191610889565b820191906000526020600020905b81548152906001019060200180831161086c57829003601f168201915b5050505050905090565b600061089e83610749565b8211156108e0576040517f08c379a00000000000000000000000000000000000000000000000000000000081526004016108d79061197f565b60405180910390fd5b600860008473ffffffffffffffffffffffffffffffffffffffff1673ffffffffffffffffffffffffffffffffffffffff16815260200190815260200160002082815481106109315761093061182c565b5b9060005260206000200154905092915050565b600b8160405161095491906119db565b908152602001604051809103902060009054906101000a900460ff16156109b0576040517f08c379a00000000000000000000000000000000000000000000000000000000081526004016109a790611a3e565b60405180910390fd5b600a819080600181540180825580915050600190039060005260206000200160009091909190915090805190602001906109eb92919061109b565b5060006001600a80549050610a009190611a8d565b9050610a0c3382610dab565b6001600b83604051610a1e91906119db565b908152602001604051809103902060006101000a81548160ff0219169083151502179055505050565b600a8181548110610a5757600080fd5b906000526020600020016000915090508054610a729061164a565b80601f0160208091040260200160405190810160405280929190818152602001828054610a9e9061164a565b8015610aeb5780601f10610ac057610100808354040283529160200191610aeb565b820191906000526020600020905b815481529060010190602001808311610ace57829003601f168201915b505050505081565b600073ffffffffffffffffffffffffffffffffffffffff168273ffffffffffffffffffffffffffffffffffffffff161415610b63576040517f08c379a0000000000000000000000000000000000000000000000000000000008152600401610b5a90611b0d565b60405180910390fd5b8273ffffffffffffffffffffffffffffffffffffffff16610b8382610697565b73ffffffffffffffffffffffffffffffffffffffff1614610bd9576040517f08c379a0000000000000000000000000000000000000000000000000000000008152600401610bd090611b9f565b60405180910390fd5b816003600083815260200190815260200160002060006101000a81548173ffffffffffffffffffffffffffffffffffffffff021916908373ffffffffffffffffffffffffffffffffffffffff1602179055506001600460008573ffffffffffffffffffffffffffffffffffffffff1673ffffffffffffffffffffffffffffffffffffffff1681526020019081526020016000206000828254610c7b9190611a8d565b925050819055506001600460008473ffffffffffffffffffffffffffffffffffffffff1673ffffffffffffffffffffffffffffffffffffffff1681526020019081526020016000206000828254610cd29190611bbf565b92505081905550808273ffffffffffffffffffffffffffffffffffffffff168473ffffffffffffffffffffffffffffffffffffffff167fddf252ad1be2c89b69c2b068fc378daa952ba7f163c4a11628f55a4df523b3ef60405160405180910390a4505050565b6000806003600084815260200190815260200160002060009054906101000a900473ffffffffffffffffffffffffffffffffffffffff169050600073ffffffffffffffffffffffffffffffffffffffff168173ffffffffffffffffffffffffffffffffffffffff161415915050919050565b610db58282610dcc565b610dbf8282610f8e565b610dc881611052565b5050565b600073ffffffffffffffffffffffffffffffffffffffff168273ffffffffffffffffffffffffffffffffffffffff161415610e3c576040517f08c379a0000000000000000000000000000000000000000000000000000000008152600401610e3390611c61565b60405180910390fd5b610e4581610d39565b15610e85576040517f08c379a0000000000000000000000000000000000000000000000000000000008152600401610e7c90611ccd565b60405180910390fd5b816003600083815260200190815260200160002060006101000a81548173ffffffffffffffffffffffffffffffffffffffff021916908373ffffffffffffffffffffffffffffffffffffffff1602179055506001600460008473ffffffffffffffffffffffffffffffffffffffff1673ffffffffffffffffffffffffffffffffffffffff1681526020019081526020016000206000828254610f279190611bbf565b92505081905550808273ffffffffffffffffffffffffffffffffffffffff16600073ffffffffffffffffffffffffffffffffffffffff167fddf252ad1be2c89b69c2b068fc378daa952ba7f163c4a11628f55a4df523b3ef60405160405180910390a45050565b600860008373ffffffffffffffffffffffffffffffffffffffff1673ffffffffffffffffffffffffffffffffffffffff168152602001908152602001600020805490506009600083815260200190815260200160002081905550600860008373ffffffffffffffffffffffffffffffffffffffff1673ffffffffffffffffffffffffffffffffffffffff1681526020019081526020016000208190806001815401808255809150506001900390600052602060002001600090919091909150555050565b6006805490506007600083815260200190815260200160002081905550600681908060018154018082558091505060019003906000526020600020016000909190919091505550565b8280546110a79061164a565b90600052602060002090601f0160209004810192826110c95760008555611110565b82601f106110e257805160ff1916838001178555611110565b82800160010185558215611110579182015b8281111561110f5782518255916020019190600101906110f4565b5b50905061111d9190611121565b5090565b5b8082111561113a576000816000905550600101611122565b5090565b6000604051905090565b600080fd5b600080fd5b60007fffffffff0000000000000000000000000000000000000000000000000000000082169050919050565b61118781611152565b811461119257600080fd5b50565b6000813590506111a48161117e565b92915050565b6000602082840312156111c0576111bf611148565b5b60006111ce84828501611195565b91505092915050565b60008115159050919050565b6111ec816111d7565b82525050565b600060208201905061120760008301846111e3565b92915050565b600081519050919050565b600082825260208201905092915050565b60005b8381101561124757808201518184015260208101905061122c565b83811115611256576000848401525b50505050565b6000601f19601f8301169050919050565b60006112788261120d565b6112828185611218565b9350611292818560208601611229565b61129b8161125c565b840191505092915050565b600060208201905081810360008301526112c0818461126d565b905092915050565b600073ffffffffffffffffffffffffffffffffffffffff82169050919050565b60006112f3826112c8565b9050919050565b611303816112e8565b811461130e57600080fd5b50565b600081359050611320816112fa565b92915050565b6000819050919050565b61133981611326565b811461134457600080fd5b50565b60008135905061135681611330565b92915050565b6000806040838503121561137357611372611148565b5b600061138185828601611311565b925050602061139285828601611347565b9150509250929050565b6113a581611326565b82525050565b60006020820190506113c0600083018461139c565b92915050565b6000806000606084860312156113df576113de611148565b5b60006113ed86828701611311565b93505060206113fe86828701611311565b925050604061140f86828701611347565b9150509250925092565b60006020828403121561142f5761142e611148565b5b600061143d84828501611347565b91505092915050565b61144f816112e8565b82525050565b600060208201905061146a6000830184611446565b92915050565b60006020828403121561148657611485611148565b5b600061149484828501611311565b91505092915050565b600080fd5b600080fd5b7f4e487b7100000000000000000000000000000000000000000000000000000000600052604160045260246000fd5b6114df8261125c565b810181811067ffffffffffffffff821117156114fe576114fd6114a7565b5b80604052505050565b600061151161113e565b905061151d82826114d6565b919050565b600067ffffffffffffffff82111561153d5761153c6114a7565b5b6115468261125c565b9050602081019050919050565b82818337600083830152505050565b600061157561157084611522565b611507565b905082815260208101848484011115611591576115906114a2565b5b61159c848285611553565b509392505050565b600082601f8301126115b9576115b861149d565b5b81356115c9848260208601611562565b91505092915050565b6000602082840312156115e8576115e7611148565b5b600082013567ffffffffffffffff8111156116065761160561114d565b5b611612848285016115a4565b91505092915050565b7f4e487b7100000000000000000000000000000000000000000000000000000000600052602260045260246000fd5b6000600282049050600182168061166257607f821691505b602082108114156116765761167561161b565b5b50919050565b7f43757272656e742063616c6c6572206973206e6f7420746865206f776e657200600082015250565b60006116b2601f83611218565b91506116bd8261167c565b602082019050919050565b600060208201905081810360008301526116e1816116a5565b9050919050565b7f43616e6e6f7420617070726f766520746f6b656e7320746f2073656c66000000600082015250565b600061171e601d83611218565b9150611729826116e8565b602082019050919050565b6000602082019050818103600083015261174d81611711565b9050919050565b7f746f6b656e20646f6573206e6f74206578697374000000000000000000000000600082015250565b600061178a601483611218565b915061179582611754565b602082019050919050565b600060208201905081810360008301526117b98161177d565b9050919050565b7f476c6f62616c20496e6465782065786365656465640000000000000000000000600082015250565b60006117f6601583611218565b9150611801826117c0565b602082019050919050565b60006020820190508181036000830152611825816117e9565b9050919050565b7f4e487b7100000000000000000000000000000000000000000000000000000000600052603260045260246000fd5b7f546f6b656e20646f6573206e6f74206578697374000000000000000000000000600082015250565b6000611891601483611218565b915061189c8261185b565b602082019050919050565b600060208201905081810360008301526118c081611884565b9050919050565b7f4164647265737320697320696e76616c69642100000000000000000000000000600082015250565b60006118fd601383611218565b9150611908826118c7565b602082019050919050565b6000602082019050818103600083015261192c816118f0565b9050919050565b7f4f776e657220746f6b656e20696e646578206578636565646564000000000000600082015250565b6000611969601a83611218565b915061197482611933565b602082019050919050565b600060208201905081810360008301526119988161195c565b9050919050565b600081905092915050565b60006119b58261120d565b6119bf818561199f565b93506119cf818560208601611229565b80840191505092915050565b60006119e782846119aa565b915081905092915050565b7f54686973204b727970746f4269726420616c7265616479206578697374730000600082015250565b6000611a28601e83611218565b9150611a33826119f2565b602082019050919050565b60006020820190508181036000830152611a5781611a1b565b9050919050565b7f4e487b7100000000000000000000000000000000000000000000000000000000600052601160045260246000fd5b6000611a9882611326565b9150611aa383611326565b925082821015611ab657611ab5611a5e565b5b828203905092915050565b7f496e76616c696420416464726573732100000000000000000000000000000000600082015250565b6000611af7601083611218565b9150611b0282611ac1565b602082019050919050565b60006020820190508181036000830152611b2681611aea565b9050919050565b7f596f752063616e206f6e6c79207472616e7366657220746f6b656e7320796f7560008201527f206f776e00000000000000000000000000000000000000000000000000000000602082015250565b6000611b89602483611218565b9150611b9482611b2d565b604082019050919050565b60006020820190508181036000830152611bb881611b7c565b9050919050565b6000611bca82611326565b9150611bd583611326565b9250827fffffffffffffffffffffffffffffffffffffffffffffffffffffffffffffffff03821115611c0a57611c09611a5e565b5b828201905092915050565b7f496e76616c696420416464726573730000000000000000000000000000000000600082015250565b6000611c4b600f83611218565b9150611c5682611c15565b602082019050919050565b60006020820190508181036000830152611c7a81611c3e565b9050919050565b7f546f6b656e20616c7265616479206d696e746564000000000000000000000000600082015250565b6000611cb7601483611218565b9150611cc282611c81565b602082019050919050565b60006020820190508181036000830152611ce681611caa565b905091905056fea26469706673582212202f6da2bea7a09ad022164147abff0358266a0564004e27faf923784305b1a5f964736f6c634300080c0033",
  "immutableReferences": {},
  "source": "// SPDX-License-Identifier: MIT\r\npragma solidity >=0.4.22 <0.9.0;\r\n\r\nimport './ERC721connector.sol';\r\n\r\ncontract Kryptobird is ERC721connector {\r\n\r\n    string[] public Kryptobirdz; //array of strings to store the NFTs\r\n\r\n    mapping(string => bool) _kBirdExists; //create maping of either true or false to each NFT to be updated after each mint\r\n\r\n    function mint(string memory _kryptoBird) public {\r\n        require(!_kBirdExists[_kryptoBird], 'This KryptoBird already exists'); // Require that this NFT has not been minted (ie set to TRUE) previously\r\n        Kryptobirdz.push(_kryptoBird); //pushes what is minted into the created array\r\n        uint _id = Kryptobirdz.length - 1; //_id value is the last index of the array (ie length - 1)\r\n\r\n        _mint(msg.sender, _id); // calling the mint function previously created in ERC721 and parsing the required values of sender and tokenId\r\n\r\n        _kBirdExists[_kryptoBird] = true; //assign true to this minted NFT\r\n    }\r\n\r\n    constructor() ERC721connector('Kryptobirdy', 'KRBD') {\r\n        \r\n    }\r\n}",
  "sourcePath": "C:\\Users\\USER\\Documents\\NFT\\nft-marketplace-starter-kit\\src\\contracts\\kryptobirdz.sol",
  "compiler": {
    "name": "solc",
    "version": "0.8.12+commit.f00d7308.Emscripten.clang"
  },
  "schemaVersion": "3.4.4",
  "updatedAt": "2022-02-25T15:03:05.454Z",
  "devdoc": {
    "kind": "dev",
    "methods": {},
    "version": 1
  },
  "userdoc": {
    "kind": "user",
    "methods": {},
    "version": 1
  }
}