{
  "contractName": "ERC721Enum",
  "abi": [
    {
      "inputs": [],
      "stateMutability": "nonpayable",
      "type": "constructor"
    },
    {
      "anonymous": false,
      "inputs": [
        {
          "indexed": true,
          "internalType": "address",
          "name": "_owner",
          "type": "address"
        },
        {
          "indexed": true,
          "internalType": "address",
          "name": "_approved",
          "type": "address"
        },
        {
          "indexed": true,
          "internalType": "uint256",
          "name": "_tokenId",
          "type": "uint256"
        }
      ],
      "name": "Approval",
      "type": "event"
    },
    {
      "anonymous": false,
      "inputs": [
        {
          "indexed": true,
          "internalType": "address",
          "name": "_from",
          "type": "address"
        },
        {
          "indexed": true,
          "internalType": "address",
          "name": "_to",
          "type": "address"
        },
        {
          "indexed": true,
          "internalType": "uint256",
          "name": "_tokenId",
          "type": "uint256"
        }
      ],
      "name": "Transfer",
      "type": "event"
    },
    {
      "inputs": [
        {
          "internalType": "address",
          "name": "_to",
          "type": "address"
        },
        {
          "internalType": "uint256",
          "name": "_tokenId",
          "type": "uint256"
        }
      ],
      "name": "approve",
      "outputs": [],
      "stateMutability": "nonpayable",
      "type": "function"
    },
    {
      "inputs": [
        {
          "internalType": "address",
          "name": "_owner",
          "type": "address"
        }
      ],
      "name": "balanceOf",
      "outputs": [
        {
          "internalType": "uint256",
          "name": "",
          "type": "uint256"
        }
      ],
      "stateMutability": "view",
      "type": "function"
    },
    {
      "inputs": [
        {
          "internalType": "address",
          "name": "spender",
          "type": "address"
        },
        {
          "internalType": "uint256",
          "name": "tokenId",
          "type": "uint256"
        }
      ],
      "name": "isApproved",
      "outputs": [
        {
          "internalType": "bool",
          "name": "",
          "type": "bool"
        }
      ],
      "stateMutability": "view",
      "type": "function"
    },
    {
      "inputs": [
        {
          "internalType": "uint256",
          "name": "_tokenId",
          "type": "uint256"
        }
      ],
      "name": "ownerOf",
      "outputs": [
        {
          "internalType": "address",
          "name": "",
          "type": "address"
        }
      ],
      "stateMutability": "view",
      "type": "function"
    },
    {
      "inputs": [
        {
          "internalType": "bytes4",
          "name": "interfaceID",
          "type": "bytes4"
        }
      ],
      "name": "supportsInterface",
      "outputs": [
        {
          "internalType": "bool",
          "name": "",
          "type": "bool"
        }
      ],
      "stateMutability": "view",
      "type": "function"
    },
    {
      "inputs": [
        {
          "internalType": "address",
          "name": "_from",
          "type": "address"
        },
        {
          "internalType": "address",
          "name": "_to",
          "type": "address"
        },
        {
          "internalType": "uint256",
          "name": "_tokenId",
          "type": "uint256"
        }
      ],
      "name": "transferFrom",
      "outputs": [],
      "stateMutability": "nonpayable",
      "type": "function"
    },
    {
      "inputs": [],
      "name": "totalSupply",
      "outputs": [
        {
          "internalType": "uint256",
          "name": "",
          "type": "uint256"
        }
      ],
      "stateMutability": "view",
      "type": "function"
    },
    {
      "inputs": [
        {
          "internalType": "uint256",
          "name": "index",
          "type": "uint256"
        }
      ],
      "name": "tokenByIndex",
      "outputs": [
        {
          "internalType": "uint256",
          "name": "",
          "type": "uint256"
        }
      ],
      "stateMutability": "view",
      "type": "function"
    },
    {
      "inputs": [
        {
          "internalType": "address",
          "name": "owner",
          "type": "address"
        },
        {
          "internalType": "uint256",
          "name": "index",
          "type": "uint256"
        }
      ],
      "name": "ownerTokenByIndex",
      "outputs": [
        {
          "internalType": "uint256",
          "name": "",
          "type": "uint256"
        }
      ],
      "stateMutability": "view",
      "type": "function"
    }
  ],
  "bytecode": "0x60806040523480156200001157600080fd5b50620000437f01ffc9a7a5cef8baa21ed3c5c0d7e23accb804b619e9333b597f47a0d84076e26200013360201b60201c565b620000b87f22c82707ba960a14c7592ffb6b8cfaa073fed0048a84cc7fa41f6b5bd8e7f2e47f3a6eb71757dfc6e784c1459d26270140c2c147d95ca985c80026fc5301c3eca17f8a7e378434598edc36d108689a030cbc9d7d465de4f74c71bae1028eed6a881b18186200013360201b60201c565b6200012d7f30e35f83661cf8f334d0d6561d2df3f09a53c215220577d7ff751422e5f88c927f6da5e1284143cdd2d15038a59bde3be031250f00291d64494c12d967b3a4e0c37fc53637662700e6c65104059db8bba34439e0c32483ab7c34e3ccae52c739549518186200013360201b60201c565b6200028e565b63ffffffff60e01b817bffffffffffffffffffffffffffffffffffffffffffffffffffffffff191614156200019f576040517f08c379a000000000000000000000000000000000000000000000000000000000815260040162000196906200026c565b60405180910390fd5b6001600080837bffffffffffffffffffffffffffffffffffffffffffffffffffffffff19167bffffffffffffffffffffffffffffffffffffffffffffffffffffffff1916815260200190815260200160002060006101000a81548160ff02191690831515021790555050565b600082825260208201905092915050565b7f496e76616c696420496e74657266616365207265717565737400000000000000600082015250565b6000620002546019836200020b565b915062000261826200021c565b602082019050919050565b60006020820190508181036000830152620002878162000245565b9050919050565b6111ca806200029e6000396000f3fe608060405234801561001057600080fd5b50600436106100935760003560e01c80632a16cca4116100665780632a16cca41461011e5780634f6ccce71461014e5780636352211e1461017e57806370a08231146101ae578063cd78c6de146101de57610093565b806301ffc9a714610098578063095ea7b3146100c857806318160ddd146100e457806323b872dd14610102575b600080fd5b6100b260048036038101906100ad9190610a71565b61020e565b6040516100bf9190610ab9565b60405180910390f35b6100e260048036038101906100dd9190610b68565b610275565b005b6100ec610411565b6040516100f99190610bb7565b60405180910390f35b61011c60048036038101906101179190610bd2565b61041e565b005b61013860048036038101906101339190610b68565b610441565b6040516101459190610ab9565b60405180910390f35b61016860048036038101906101639190610c25565b6104d0565b6040516101759190610bb7565b60405180910390f35b61019860048036038101906101939190610c25565b610541565b6040516101a59190610c61565b60405180910390f35b6101c860048036038101906101c39190610c7c565b6105f3565b6040516101d59190610bb7565b60405180910390f35b6101f860048036038101906101f39190610b68565b6106ab565b6040516102059190610bb7565b60405180910390f35b6000806000837bffffffffffffffffffffffffffffffffffffffffffffffffffffffff19167bffffffffffffffffffffffffffffffffffffffffffffffffffffffff1916815260200190815260200160002060009054906101000a900460ff169050919050565b600061028082610541565b90508073ffffffffffffffffffffffffffffffffffffffff163373ffffffffffffffffffffffffffffffffffffffff16146102f0576040517f08c379a00000000000000000000000000000000000000000000000000000000081526004016102e790610d06565b60405180910390fd5b8073ffffffffffffffffffffffffffffffffffffffff168373ffffffffffffffffffffffffffffffffffffffff16141561035f576040517f08c379a000000000000000000000000000000000000000000000000000000000815260040161035690610d72565b60405180910390fd5b826003600084815260200190815260200160002060006101000a81548173ffffffffffffffffffffffffffffffffffffffff021916908373ffffffffffffffffffffffffffffffffffffffff160217905550818373ffffffffffffffffffffffffffffffffffffffff168273ffffffffffffffffffffffffffffffffffffffff167f8c5be1e5ebec7d5bd14f71427d1e84f3dd0314c0f7b2291e5b200ac8c7c3b92560405160405180910390a4505050565b6000600480549050905090565b6104283382610441565b61043157600080fd5b61043c83838361075c565b505050565b600061044c826109a2565b61048b576040517f08c379a000000000000000000000000000000000000000000000000000000000815260040161048290610dde565b60405180910390fd5b600061049683610541565b90508073ffffffffffffffffffffffffffffffffffffffff168473ffffffffffffffffffffffffffffffffffffffff161491505092915050565b60006104da610411565b821061051b576040517f08c379a000000000000000000000000000000000000000000000000000000000815260040161051290610e4a565b60405180910390fd5b6004828154811061052f5761052e610e6a565b5b90600052602060002001549050919050565b6000806001600084815260200190815260200160002060009054906101000a900473ffffffffffffffffffffffffffffffffffffffff169050600073ffffffffffffffffffffffffffffffffffffffff168173ffffffffffffffffffffffffffffffffffffffff1614156105ea576040517f08c379a00000000000000000000000000000000000000000000000000000000081526004016105e190610ee5565b60405180910390fd5b80915050919050565b60008073ffffffffffffffffffffffffffffffffffffffff168273ffffffffffffffffffffffffffffffffffffffff161415610664576040517f08c379a000000000000000000000000000000000000000000000000000000000815260040161065b90610f51565b60405180910390fd5b600260008373ffffffffffffffffffffffffffffffffffffffff1673ffffffffffffffffffffffffffffffffffffffff168152602001908152602001600020549050919050565b60006106b6836105f3565b8211156106f8576040517f08c379a00000000000000000000000000000000000000000000000000000000081526004016106ef90610fbd565b60405180910390fd5b600660008473ffffffffffffffffffffffffffffffffffffffff1673ffffffffffffffffffffffffffffffffffffffff168152602001908152602001600020828154811061074957610748610e6a565b5b9060005260206000200154905092915050565b600073ffffffffffffffffffffffffffffffffffffffff168273ffffffffffffffffffffffffffffffffffffffff1614156107cc576040517f08c379a00000000000000000000000000000000000000000000000000000000081526004016107c390611029565b60405180910390fd5b8273ffffffffffffffffffffffffffffffffffffffff166107ec82610541565b73ffffffffffffffffffffffffffffffffffffffff1614610842576040517f08c379a0000000000000000000000000000000000000000000000000000000008152600401610839906110bb565b60405180910390fd5b816001600083815260200190815260200160002060006101000a81548173ffffffffffffffffffffffffffffffffffffffff021916908373ffffffffffffffffffffffffffffffffffffffff1602179055506001600260008573ffffffffffffffffffffffffffffffffffffffff1673ffffffffffffffffffffffffffffffffffffffff16815260200190815260200160002060008282546108e4919061110a565b925050819055506001600260008473ffffffffffffffffffffffffffffffffffffffff1673ffffffffffffffffffffffffffffffffffffffff168152602001908152602001600020600082825461093b919061113e565b92505081905550808273ffffffffffffffffffffffffffffffffffffffff168473ffffffffffffffffffffffffffffffffffffffff167fddf252ad1be2c89b69c2b068fc378daa952ba7f163c4a11628f55a4df523b3ef60405160405180910390a4505050565b6000806001600084815260200190815260200160002060009054906101000a900473ffffffffffffffffffffffffffffffffffffffff169050600073ffffffffffffffffffffffffffffffffffffffff168173ffffffffffffffffffffffffffffffffffffffff161415915050919050565b600080fd5b60007fffffffff0000000000000000000000000000000000000000000000000000000082169050919050565b610a4e81610a19565b8114610a5957600080fd5b50565b600081359050610a6b81610a45565b92915050565b600060208284031215610a8757610a86610a14565b5b6000610a9584828501610a5c565b91505092915050565b60008115159050919050565b610ab381610a9e565b82525050565b6000602082019050610ace6000830184610aaa565b92915050565b600073ffffffffffffffffffffffffffffffffffffffff82169050919050565b6000610aff82610ad4565b9050919050565b610b0f81610af4565b8114610b1a57600080fd5b50565b600081359050610b2c81610b06565b92915050565b6000819050919050565b610b4581610b32565b8114610b5057600080fd5b50565b600081359050610b6281610b3c565b92915050565b60008060408385031215610b7f57610b7e610a14565b5b6000610b8d85828601610b1d565b9250506020610b9e85828601610b53565b9150509250929050565b610bb181610b32565b82525050565b6000602082019050610bcc6000830184610ba8565b92915050565b600080600060608486031215610beb57610bea610a14565b5b6000610bf986828701610b1d565b9350506020610c0a86828701610b1d565b9250506040610c1b86828701610b53565b9150509250925092565b600060208284031215610c3b57610c3a610a14565b5b6000610c4984828501610b53565b91505092915050565b610c5b81610af4565b82525050565b6000602082019050610c766000830184610c52565b92915050565b600060208284031215610c9257610c91610a14565b5b6000610ca084828501610b1d565b91505092915050565b600082825260208201905092915050565b7f43757272656e742063616c6c6572206973206e6f7420746865206f776e657200600082015250565b6000610cf0601f83610ca9565b9150610cfb82610cba565b602082019050919050565b60006020820190508181036000830152610d1f81610ce3565b9050919050565b7f43616e6e6f7420617070726f766520746f6b656e7320746f2073656c66000000600082015250565b6000610d5c601d83610ca9565b9150610d6782610d26565b602082019050919050565b60006020820190508181036000830152610d8b81610d4f565b9050919050565b7f746f6b656e20646f6573206e6f74206578697374000000000000000000000000600082015250565b6000610dc8601483610ca9565b9150610dd382610d92565b602082019050919050565b60006020820190508181036000830152610df781610dbb565b9050919050565b7f476c6f62616c20496e6465782065786365656465640000000000000000000000600082015250565b6000610e34601583610ca9565b9150610e3f82610dfe565b602082019050919050565b60006020820190508181036000830152610e6381610e27565b9050919050565b7f4e487b7100000000000000000000000000000000000000000000000000000000600052603260045260246000fd5b7f546f6b656e20646f6573206e6f74206578697374000000000000000000000000600082015250565b6000610ecf601483610ca9565b9150610eda82610e99565b602082019050919050565b60006020820190508181036000830152610efe81610ec2565b9050919050565b7f4164647265737320697320696e76616c69642100000000000000000000000000600082015250565b6000610f3b601383610ca9565b9150610f4682610f05565b602082019050919050565b60006020820190508181036000830152610f6a81610f2e565b9050919050565b7f4f776e657220746f6b656e20696e646578206578636565646564000000000000600082015250565b6000610fa7601a83610ca9565b9150610fb282610f71565b602082019050919050565b60006020820190508181036000830152610fd681610f9a565b9050919050565b7f496e76616c696420416464726573732100000000000000000000000000000000600082015250565b6000611013601083610ca9565b915061101e82610fdd565b602082019050919050565b6000602082019050818103600083015261104281611006565b9050919050565b7f596f752063616e206f6e6c79207472616e7366657220746f6b656e7320796f7560008201527f206f776e00000000000000000000000000000000000000000000000000000000602082015250565b60006110a5602483610ca9565b91506110b082611049565b604082019050919050565b600060208201905081810360008301526110d481611098565b9050919050565b7f4e487b7100000000000000000000000000000000000000000000000000000000600052601160045260246000fd5b600061111582610b32565b915061112083610b32565b925082821015611133576111326110db565b5b828203905092915050565b600061114982610b32565b915061115483610b32565b9250827fffffffffffffffffffffffffffffffffffffffffffffffffffffffffffffffff03821115611189576111886110db565b5b82820190509291505056fea2646970667358221220f34885955f48fc94acc8b427b7c68e73f9aa843acae704f60c3ea96a4528c6b964736f6c634300080b0033",
  "immutableReferences": {},
  "source": "// SPDX-License-Identifier: MIT\r\npragma solidity >=0.4.22 <0.9.0;\r\n\r\nimport './ERC721.sol';\r\nimport './interfaces/IERC721Enum.sol';\r\n\r\ncontract ERC721Enum is IERC721Enum, ERC721 {\r\n\r\n    uint256[] private _allTokens; // create an array of integers to hold the list of tokens\r\n\r\n    mapping (uint256 => uint256) private _allTokensIndex; // Mapping from tokenId to position in _allTokens array\r\n    mapping (address => uint256[]) private _ownedTokens; // Mapping of owner to list of all owned token ids\r\n    mapping (uint256 => uint256) private _tokenIndex; // mapping from token id to index of the owner tokens list\r\n\r\n    constructor(){\r\n        _registerInterface(bytes4(keccak256('totalSupply(bytes4)')^keccak256('tokenByIndex(bytes4)')^keccak256('ownerTokenByIndex(bytes4)')));\r\n    }\r\n\r\n    function totalSupply() public view override returns(uint256){\r\n        return _allTokens.length; //length of the _allTokens array\r\n    }\r\n\r\n    function _mint(address to, uint256 tokenId) internal override(ERC721){\r\n        super._mint(to, tokenId);\r\n        _addTokensToOwner(to, tokenId); // add tokens to the owner\r\n        _addTokensToAllTokens(tokenId); // add tokens to total supply (_allTokens)\r\n    }\r\n\r\n    function _addTokensToAllTokens(uint256 tokenId) private {\r\n        _allTokensIndex[tokenId] = _allTokens.length; // For 1st map, set the position of the new token to be created to the current length of the array\r\n        _allTokens.push(tokenId);\r\n    }\r\n\r\n    function _addTokensToOwner(address to, uint256 tokenId) private {\r\n        _tokenIndex[tokenId] = _ownedTokens[to].length; // For 2nd map assign a position to tokenIndex by setting it to current length of the owned tokens array \r\n        _ownedTokens[to].push(tokenId); // Add tokenId to owned tokens\r\n    }\r\n\r\n    function tokenByIndex(uint256 index) public view override returns(uint256){\r\n        require(index < totalSupply(), 'Global Index exceeded'); // Ensure that the provided index no does not exceed total supply\r\n        return _allTokens[index]; // The function returns token when given the index\r\n    }\r\n\r\n    function ownerTokenByIndex (address owner, uint256 index) public view override returns (uint256){\r\n        require(index <= balanceOf(owner), 'Owner token index exceeded'); // Ensure that the provided index does not exceed number of tokens owned by owner\r\n        return _ownedTokens[owner][index];\r\n    }\r\n\r\n}",
  "sourcePath": "C:\\Users\\USER\\Documents\\NFT\\nft-marketplace-starter-kit\\src\\contracts\\ERC721Enum.sol",
  "compiler": {
    "name": "solc",
    "version": "0.8.11+commit.d7f03943.Emscripten.clang"
  },
  "schemaVersion": "3.4.4",
  "updatedAt": "2022-02-24T22:47:43.712Z",
  "devdoc": {
    "kind": "dev",
    "methods": {},
    "version": 1
  },
  "userdoc": {
    "kind": "user",
    "methods": {},
    "version": 1
  }
}