{
  "contractName": "ERC721",
  "abi": [
    {
      "inputs": [],
      "stateMutability": "nonpayable",
      "type": "constructor"
    },
    {
      "anonymous": false,
      "inputs": [
        {
          "indexed": true,
          "internalType": "address",
          "name": "_owner",
          "type": "address"
        },
        {
          "indexed": true,
          "internalType": "address",
          "name": "_approved",
          "type": "address"
        },
        {
          "indexed": true,
          "internalType": "uint256",
          "name": "_tokenId",
          "type": "uint256"
        }
      ],
      "name": "Approval",
      "type": "event"
    },
    {
      "anonymous": false,
      "inputs": [
        {
          "indexed": true,
          "internalType": "address",
          "name": "_from",
          "type": "address"
        },
        {
          "indexed": true,
          "internalType": "address",
          "name": "_to",
          "type": "address"
        },
        {
          "indexed": true,
          "internalType": "uint256",
          "name": "_tokenId",
          "type": "uint256"
        }
      ],
      "name": "Transfer",
      "type": "event"
    },
    {
      "inputs": [
        {
          "internalType": "bytes4",
          "name": "interfaceID",
          "type": "bytes4"
        }
      ],
      "name": "supportsInterface",
      "outputs": [
        {
          "internalType": "bool",
          "name": "",
          "type": "bool"
        }
      ],
      "stateMutability": "view",
      "type": "function"
    },
    {
      "inputs": [
        {
          "internalType": "address",
          "name": "_owner",
          "type": "address"
        }
      ],
      "name": "balanceOf",
      "outputs": [
        {
          "internalType": "uint256",
          "name": "",
          "type": "uint256"
        }
      ],
      "stateMutability": "view",
      "type": "function"
    },
    {
      "inputs": [
        {
          "internalType": "uint256",
          "name": "_tokenId",
          "type": "uint256"
        }
      ],
      "name": "ownerOf",
      "outputs": [
        {
          "internalType": "address",
          "name": "",
          "type": "address"
        }
      ],
      "stateMutability": "view",
      "type": "function"
    },
    {
      "inputs": [
        {
          "internalType": "address",
          "name": "_from",
          "type": "address"
        },
        {
          "internalType": "address",
          "name": "_to",
          "type": "address"
        },
        {
          "internalType": "uint256",
          "name": "_tokenId",
          "type": "uint256"
        }
      ],
      "name": "transferFrom",
      "outputs": [],
      "stateMutability": "nonpayable",
      "type": "function"
    },
    {
      "inputs": [
        {
          "internalType": "address",
          "name": "_to",
          "type": "address"
        },
        {
          "internalType": "uint256",
          "name": "_tokenId",
          "type": "uint256"
        }
      ],
      "name": "approve",
      "outputs": [],
      "stateMutability": "nonpayable",
      "type": "function"
    },
    {
      "inputs": [
        {
          "internalType": "address",
          "name": "spender",
          "type": "address"
        },
        {
          "internalType": "uint256",
          "name": "tokenId",
          "type": "uint256"
        }
      ],
      "name": "isApproved",
      "outputs": [
        {
          "internalType": "bool",
          "name": "",
          "type": "bool"
        }
      ],
      "stateMutability": "view",
      "type": "function"
    }
  ],
  "bytecode": "0x608060405234801561001057600080fd5b506100407f01ffc9a7a5cef8baa21ed3c5c0d7e23accb804b619e9333b597f47a0d84076e26100b860201b60201c565b6100b37f22c82707ba960a14c7592ffb6b8cfaa073fed0048a84cc7fa41f6b5bd8e7f2e47f3a6eb71757dfc6e784c1459d26270140c2c147d95ca985c80026fc5301c3eca17f8a7e378434598edc36d108689a030cbc9d7d465de4f74c71bae1028eed6a881b18186100b860201b60201c565b61020a565b63ffffffff60e01b817bffffffffffffffffffffffffffffffffffffffffffffffffffffffff19161415610121576040517f08c379a0000000000000000000000000000000000000000000000000000000008152600401610118906101ea565b60405180910390fd5b6001600080837bffffffffffffffffffffffffffffffffffffffffffffffffffffffff19167bffffffffffffffffffffffffffffffffffffffffffffffffffffffff1916815260200190815260200160002060006101000a81548160ff02191690831515021790555050565b600082825260208201905092915050565b7f496e76616c696420496e74657266616365207265717565737400000000000000600082015250565b60006101d460198361018d565b91506101df8261019e565b602082019050919050565b60006020820190508181036000830152610203816101c7565b9050919050565b610ee5806102196000396000f3fe608060405234801561001057600080fd5b50600436106100625760003560e01c806301ffc9a714610067578063095ea7b31461009757806323b872dd146100b35780632a16cca4146100cf5780636352211e146100ff57806370a082311461012f575b600080fd5b610081600480360381019061007c9190610893565b61015f565b60405161008e91906108db565b60405180910390f35b6100b160048036038101906100ac919061098a565b6101c6565b005b6100cd60048036038101906100c891906109ca565b610362565b005b6100e960048036038101906100e4919061098a565b610385565b6040516100f691906108db565b60405180910390f35b61011960048036038101906101149190610a1d565b610414565b6040516101269190610a59565b60405180910390f35b61014960048036038101906101449190610a74565b6104c6565b6040516101569190610ab0565b60405180910390f35b6000806000837bffffffffffffffffffffffffffffffffffffffffffffffffffffffff19167bffffffffffffffffffffffffffffffffffffffffffffffffffffffff1916815260200190815260200160002060009054906101000a900460ff169050919050565b60006101d182610414565b90508073ffffffffffffffffffffffffffffffffffffffff163373ffffffffffffffffffffffffffffffffffffffff1614610241576040517f08c379a000000000000000000000000000000000000000000000000000000000815260040161023890610b28565b60405180910390fd5b8073ffffffffffffffffffffffffffffffffffffffff168373ffffffffffffffffffffffffffffffffffffffff1614156102b0576040517f08c379a00000000000000000000000000000000000000000000000000000000081526004016102a790610b94565b60405180910390fd5b826003600084815260200190815260200160002060006101000a81548173ffffffffffffffffffffffffffffffffffffffff021916908373ffffffffffffffffffffffffffffffffffffffff160217905550818373ffffffffffffffffffffffffffffffffffffffff168273ffffffffffffffffffffffffffffffffffffffff167f8c5be1e5ebec7d5bd14f71427d1e84f3dd0314c0f7b2291e5b200ac8c7c3b92560405160405180910390a4505050565b61036c3382610385565b61037557600080fd5b61038083838361057e565b505050565b6000610390826107c4565b6103cf576040517f08c379a00000000000000000000000000000000000000000000000000000000081526004016103c690610c00565b60405180910390fd5b60006103da83610414565b90508073ffffffffffffffffffffffffffffffffffffffff168473ffffffffffffffffffffffffffffffffffffffff161491505092915050565b6000806001600084815260200190815260200160002060009054906101000a900473ffffffffffffffffffffffffffffffffffffffff169050600073ffffffffffffffffffffffffffffffffffffffff168173ffffffffffffffffffffffffffffffffffffffff1614156104bd576040517f08c379a00000000000000000000000000000000000000000000000000000000081526004016104b490610c6c565b60405180910390fd5b80915050919050565b60008073ffffffffffffffffffffffffffffffffffffffff168273ffffffffffffffffffffffffffffffffffffffff161415610537576040517f08c379a000000000000000000000000000000000000000000000000000000000815260040161052e90610cd8565b60405180910390fd5b600260008373ffffffffffffffffffffffffffffffffffffffff1673ffffffffffffffffffffffffffffffffffffffff168152602001908152602001600020549050919050565b600073ffffffffffffffffffffffffffffffffffffffff168273ffffffffffffffffffffffffffffffffffffffff1614156105ee576040517f08c379a00000000000000000000000000000000000000000000000000000000081526004016105e590610d44565b60405180910390fd5b8273ffffffffffffffffffffffffffffffffffffffff1661060e82610414565b73ffffffffffffffffffffffffffffffffffffffff1614610664576040517f08c379a000000000000000000000000000000000000000000000000000000000815260040161065b90610dd6565b60405180910390fd5b816001600083815260200190815260200160002060006101000a81548173ffffffffffffffffffffffffffffffffffffffff021916908373ffffffffffffffffffffffffffffffffffffffff1602179055506001600260008573ffffffffffffffffffffffffffffffffffffffff1673ffffffffffffffffffffffffffffffffffffffff16815260200190815260200160002060008282546107069190610e25565b925050819055506001600260008473ffffffffffffffffffffffffffffffffffffffff1673ffffffffffffffffffffffffffffffffffffffff168152602001908152602001600020600082825461075d9190610e59565b92505081905550808273ffffffffffffffffffffffffffffffffffffffff168473ffffffffffffffffffffffffffffffffffffffff167fddf252ad1be2c89b69c2b068fc378daa952ba7f163c4a11628f55a4df523b3ef60405160405180910390a4505050565b6000806001600084815260200190815260200160002060009054906101000a900473ffffffffffffffffffffffffffffffffffffffff169050600073ffffffffffffffffffffffffffffffffffffffff168173ffffffffffffffffffffffffffffffffffffffff161415915050919050565b600080fd5b60007fffffffff0000000000000000000000000000000000000000000000000000000082169050919050565b6108708161083b565b811461087b57600080fd5b50565b60008135905061088d81610867565b92915050565b6000602082840312156108a9576108a8610836565b5b60006108b78482850161087e565b91505092915050565b60008115159050919050565b6108d5816108c0565b82525050565b60006020820190506108f060008301846108cc565b92915050565b600073ffffffffffffffffffffffffffffffffffffffff82169050919050565b6000610921826108f6565b9050919050565b61093181610916565b811461093c57600080fd5b50565b60008135905061094e81610928565b92915050565b6000819050919050565b61096781610954565b811461097257600080fd5b50565b6000813590506109848161095e565b92915050565b600080604083850312156109a1576109a0610836565b5b60006109af8582860161093f565b92505060206109c085828601610975565b9150509250929050565b6000806000606084860312156109e3576109e2610836565b5b60006109f18682870161093f565b9350506020610a028682870161093f565b9250506040610a1386828701610975565b9150509250925092565b600060208284031215610a3357610a32610836565b5b6000610a4184828501610975565b91505092915050565b610a5381610916565b82525050565b6000602082019050610a6e6000830184610a4a565b92915050565b600060208284031215610a8a57610a89610836565b5b6000610a988482850161093f565b91505092915050565b610aaa81610954565b82525050565b6000602082019050610ac56000830184610aa1565b92915050565b600082825260208201905092915050565b7f43757272656e742063616c6c6572206973206e6f7420746865206f776e657200600082015250565b6000610b12601f83610acb565b9150610b1d82610adc565b602082019050919050565b60006020820190508181036000830152610b4181610b05565b9050919050565b7f43616e6e6f7420617070726f766520746f6b656e7320746f2073656c66000000600082015250565b6000610b7e601d83610acb565b9150610b8982610b48565b602082019050919050565b60006020820190508181036000830152610bad81610b71565b9050919050565b7f746f6b656e20646f6573206e6f74206578697374000000000000000000000000600082015250565b6000610bea601483610acb565b9150610bf582610bb4565b602082019050919050565b60006020820190508181036000830152610c1981610bdd565b9050919050565b7f546f6b656e20646f6573206e6f74206578697374000000000000000000000000600082015250565b6000610c56601483610acb565b9150610c6182610c20565b602082019050919050565b60006020820190508181036000830152610c8581610c49565b9050919050565b7f4164647265737320697320696e76616c69642100000000000000000000000000600082015250565b6000610cc2601383610acb565b9150610ccd82610c8c565b602082019050919050565b60006020820190508181036000830152610cf181610cb5565b9050919050565b7f496e76616c696420416464726573732100000000000000000000000000000000600082015250565b6000610d2e601083610acb565b9150610d3982610cf8565b602082019050919050565b60006020820190508181036000830152610d5d81610d21565b9050919050565b7f596f752063616e206f6e6c79207472616e7366657220746f6b656e7320796f7560008201527f206f776e00000000000000000000000000000000000000000000000000000000602082015250565b6000610dc0602483610acb565b9150610dcb82610d64565b604082019050919050565b60006020820190508181036000830152610def81610db3565b9050919050565b7f4e487b7100000000000000000000000000000000000000000000000000000000600052601160045260246000fd5b6000610e3082610954565b9150610e3b83610954565b925082821015610e4e57610e4d610df6565b5b828203905092915050565b6000610e6482610954565b9150610e6f83610954565b9250827fffffffffffffffffffffffffffffffffffffffffffffffffffffffffffffffff03821115610ea457610ea3610df6565b5b82820190509291505056fea2646970667358221220887e024e3126ce92fc0dfa6b41ea5d8706a56161b3d174c7be81edb656ad255564736f6c634300080b0033",
  "immutableReferences": {},
  "source": "// SPDX-License-Identifier: MIT\r\npragma solidity >=0.4.22 <0.9.0;\r\n\r\nimport './ERC165.sol';\r\nimport './interfaces/IERC721.sol';\r\n\r\n/* Mint function\r\na. NFT to point to an address\r\nb. Keep track of the token IDs\r\nc. Keep track of token owner addresses \r\nd. Keep track of how many tokens an owner address has\r\ne. Create an event that emits a transfer log containing the information required*/\r\n\r\ncontract ERC721 is ERC165, IERC721 {\r\n\r\n    mapping(uint256 => address) private _tokenOwner; //mapping of Token IDs (int) to owner (address)\r\n    mapping(address => uint256) private _tokensCount; //mapping from owner to number of owned tokens\r\n    mapping(uint256 => address) private _tokenApprovals; //mapping from tokenID to approved addresses\r\n\r\n    constructor(){\r\n        _registerInterface(bytes4(keccak256('balanceOf(bytes4)')^keccak256('ownerOf(bytes4)')^keccak256('transferFrom(bytes4)')));\r\n    }\r\n\r\n    function balanceOf(address _owner) public override view returns(uint256){\r\n        require(_owner != address(0), 'Address is invalid!');\r\n        return _tokensCount[_owner];\r\n    }\r\n\r\n    function ownerOf(uint256 _tokenId) public override view returns(address){\r\n        address owner = _tokenOwner[_tokenId];\r\n        require(owner != address(0), 'Token does not exist');\r\n        return owner;\r\n    }\r\n\r\n    function _exists(uint256 tokenId) internal view returns(bool) { // function takes tokenID as parameter. We expect a return of true/false (bool)\r\n        address owner = _tokenOwner[tokenId]; // tokenID is parsed to the _tokenOwner mapping to obtain the corresponding address\r\n        return owner != address(0); // Check if the address returned is a zero address. Returns true is it's not\r\n    }\r\n\r\n    function _mint(address to, uint256 tokenId) virtual internal {\r\n        require(to != address(0), \"Invalid Address\"); //require that the address is not a zero address\r\n        require(!_exists(tokenId), \"Token already minted\"); //Require that this tokenID is not existng before now\r\n\r\n        _tokenOwner[tokenId] = to;\r\n        _tokensCount[to] +=1; // increment count of token each time the function is called\r\n\r\n        emit Transfer(address(0), to, tokenId); //emit the transfer event\r\n    }\r\n\r\n    function _transferFrom(address _from, address _to, uint256 _tokenId) internal {\r\n        require (_to != address(0), 'Invalid Address!'); // require that the receiving address is not a zero adress\r\n        //require (_exists(_tokenId), 'You must own tokens to transfer');\r\n        require (ownerOf(_tokenId) == _from, 'You can only transfer tokens you own');// require that address tranferring the token actually owns it\r\n        _tokenOwner[_tokenId] = _to; // add token id to address receiving the token\r\n        _tokensCount[_from] -= 1; // update balance of the _from address\r\n        _tokensCount[_to] += 1; // update the balance of the _to address\r\n        emit Transfer(_from, _to, _tokenId);\r\n    }\r\n\r\n    function transferFrom(address _from, address _to, uint256 _tokenId) override public {\r\n        require(isApproved(msg.sender, _tokenId)); // call the approval function to require that the user is approved\r\n        _transferFrom(_from, _to, _tokenId);\r\n    }\r\n\r\n    function approve(address _to, uint256 _tokenId) public { // approve an address to a token\r\n        address owner = ownerOf(_tokenId);\r\n        require(msg.sender == owner, 'Current caller is not the owner'); // require that approver is the owner\r\n        require(_to != owner, 'Cannot approve tokens to self'); // require that the owner cannot approve sending tokens to himself\r\n\r\n        _tokenApprovals[_tokenId] = _to; // map the _to address in the tokenApprovals array\r\n        emit Approval(owner, _to, _tokenId);\r\n    }\r\n\r\n    function isApproved(address spender, uint256 tokenId) public view returns (bool){\r\n        require(_exists(tokenId), 'token does not exist');\r\n        address owner = ownerOf(tokenId);\r\n        return(spender == owner);\r\n    }\r\n}",
  "sourcePath": "C:\\Users\\USER\\Documents\\NFT\\nft-marketplace-starter-kit\\src\\contracts\\ERC721.sol",
  "compiler": {
    "name": "solc",
    "version": "0.8.11+commit.d7f03943.Emscripten.clang"
  },
  "schemaVersion": "3.4.4",
  "updatedAt": "2022-02-24T22:47:43.697Z",
  "devdoc": {
    "kind": "dev",
    "methods": {},
    "version": 1
  },
  "userdoc": {
    "kind": "user",
    "methods": {},
    "version": 1
  }
}